:020000040802F0
:10000000A1250208DC2F0208643002086D010000FF
:10001000FA48FB494860FB480860012008734873B0
:10002000084670470120F84908700846007A497A66
:10003000884202DD0020F4490870F349497AF24A07
:10004000127A881A002801DB014600E04142EE4A9C
:10005000516000201146C872084640680C280ED92D
:100060000846007810B10020087002E00120E6493F
:100070000870E5484068C0F11800E34948607047DF
:1000800010B5E2490968D1F8A000804704284CD097
:1000900007DC68B101282DD0022834D0032866D1AE
:1000A0003AE005284AD0062851D0FE285FD158E012
:1000B000D6480068816D02208847D4480068816D69
:1000C0000C208847D1480068816D0F208847CF48B1
:1000D0000068816D1B208847CC480068816D262010
:1000E0008847CA480068FE220121D0F884300C20DD
:1000F00098473CE0C5480068FE220221D0F88430D1
:100100000F20984733E0C1480068FE220321D0F851
:100110008030042098472AE0BC480068FE22042171
:10012000D0F884300220984721E0B8480068FE22C9
:100130000521D0F884301B20984718E0B3480068A8
:10014000FE220621D0F88430262098470FE0AF49E0
:100150000968086D8047AD480068816D1A2088479E
:1001600005E0AA490968D1F89400804700BF00BFA4
:1001700010BD38B5A5490968D1F8A0008047052809
:100180006ED005DC37D2DFE800F010373E525F005A
:10019000FD286ED004DC06286ED007282BD179E02C
:1001A000FE2868D0FF28F9D17DE098480068016BEF
:1001B0000020884798B195480068426A94480168D1
:1001C00006209047FD2000909048006801230022FF
:1001D0004FF45E71D0F89C400620A0470BE0FE2053
:1001E00000908A4800680323002248F6E321D0F8F3
:1001F00098400620A04773E0844800680721426FBA
:10020000062090476CE081480068426A8048016897
:1002100006209047FE2000907C48006806230122BB
:100220006FF4DE61D0F898401846A04758E0774850
:1002300000680421C26F0020904774480068FE21C6
:10024000426F062090474BE07048006841680620E6
:1002500088476E4800680521426F062090473FE0BE
:100260006A4800680221D0F888204FF4FA7090475D
:1002700036E021E000E029E064480068C16906201A
:10028000884762480068FF21D0F888204FF49670B4
:10029000904725E05D4800680221D0F888204FF49F
:1002A000FA7090471CE001205749887248725749FC
:1002B0000968086D804713E000205349887253484D
:1002C0000068D0F8901053A0884709E000204E49FC
:1002D00088724E480068D0F8901055A0884700BF3B
:1002E00000BF38BD38B549490968D1F8A00080473A
:1002F00007287CD006DC23D2DFE800F0154BB9C616
:10030000D8E1EC000C2873D006DC082871D009284D
:1003100070D00A2814D11DE10D286CD0FD286BD0B7
:10032000FE28F7D14BE139480068016F002088476B
:10033000182806DD35480068D0F8901043A088479B
:1003400047E132480068016F002088472E49087253
:100350000846807A40B92D480068FD220121D0F876
:1003600080300220984734E128480068016B012062
:10037000884740B925480068FD220121D0F8803027
:100380000220984725E121480068016C0120884738
:100390001FE1FFF747FE1C48406820B91B49096868
:1003A000086D804715E11848007888B9042000904E
:1003B0001548406840F23552504300F55E711348CD
:1003C000006802230122D0F89C400620A0474DE09F
:1003D0000A2000900C48406840F23552504340F2E9
:1003E000C722111A09480068082301223AE084E074
:1003F000C8E090E09CE0D3E0DBE0000029C00020F2
:1004000088C0002000C0002098C0002054C00020F8
:1004100058C00020D7AACDB2B5B2C6ACC0EBBFAAB7
:10042000D4ADB5E3B4ABB8D0C6F7CAA7B0DC2100F1
:10043000D7AACDB2B5B2C6ACD5D2D4ADB5E3B4ABC4
:10044000B8D0C6F7CAA7B0DC21000000D7AACDB249
:10045000B6A8CEBBB2CECAFDB3ACB3F6B7B6CEA784
:1004600021000000D0F89C400620A047B1E0FE48E3
:1004700000680321826F01209047FB480068042137
:10048000426F06209047A4E0F74800680221C26F3F
:1004900001209047F548C07A401CF449C872F248E0
:1004A00000680421426F0620904792E0EE48006801
:1004B0000621D0F888204FF4FA70904789E0EA4886
:1004C0000068C16906208847E7480068016C06207B
:1004D00088477EE0E4480068426AE54801680620F3
:1004E0009047FE200090E048006807230122E14980
:1004F000D0F898400620A0476BE0DB480068C1694F
:1005000006208847D948007AD8494872D6490968F0
:10051000086D80475DE0D44800680921826F0120A2
:100520009047D14800680A21426F0620904750E06A
:10053000CD4800680821C26F01209047CB48C07A9F
:10054000401CCA49C872C84800680A21426F062088
:1005500090473EE0C4480068016B0120884740B1E5
:10056000C14800680C21D0F888204FF4FA709047F9
:1005700007E0BD4800680621D0F888204FF4FA70E3
:10058000904726E0B84800684FF4DE710268062004
:100590009047B54800680D21426F0620904718E04B
:1005A000B14800680621D0F888204FF4FA709047CF
:1005B0000FE0AD490968D1F89400804709E00020B8
:1005C000AA498872A8480068D0F89010AAA0884765
:1005D00000BF00BF38BD10B5A3490968D1F8A0001D
:1005E0008047052865D005DC19D2DFE800F00C193A
:1005F000263A4E00062873D0FC286FD0FD286ED016
:10060000FE280CD1ADE0984800680121826F0A20D5
:10061000904795480068FE21426F02209047B5E060
:10062000914800680221C26F0A2090478E480068F6
:10063000FE21426F02209047A8E08B480068C16805
:10064000022088479349C860874800680321826F69
:100650000B20904784480068FD21426F022090479C
:1006600094E0814800680421C26F0B2090477E48C7
:100670000068C16802208847874908607A48006896
:10068000FD21426F0220904780E077480068C168F2
:10069000022088477F498860734800680521826F7F
:1006A0000E20904770480068FC21426F022090475E
:1006B0006CE06D480068C16802208847774908608F
:1006C000694800680621C26F0E209047664800689E
:1006D000FC21426F0220904758E001E04FE047E0E4
:1006E00061480068C168022088476A4908618968D2
:1006F000694A1268501A002801DB014600E04142B5
:10070000654A116063490969644A1268501A0028F1
:1007100001DB014600E04142604A11605E49096820
:100720001268881A002801DB014600E04142642972
:1007300006DD4D480068D0F8901059A088470FE0BA
:1007400054480069A0F6EA305249486108464069B9
:10075000A0F5B0501238886143490968086D804798
:1007600014E041480068D0F8901053A088470DE08D
:100770003D480068D0F8901054A0884706E03A48F9
:100780000068D0F8901056A0884700BF00BF10BD89
:1007900010B535480068416B0720884730B13248B2
:1007A0000068D0F8901053A0884710BD2E4800680C
:1007B000416B0220884730B12B480068D0F8901078
:1007C0004CA08847F1E700BFEFE738B52649096834
:1007D000D1F8A0008047052840D005DC3FD2DFE8F3
:1007E00000F010A0AFDFEC00082839D004DC0628A8
:1007F00037D0072833D16BE1FD2833D0FE28F9D15B
:100800008AE1FFF7C5FF2348007F90B916480068CA
:10081000426A3D48016802209047FE20009012483D
:100820000068FD2319223949D0F898400220A047DA
:100830000CE00D4800686FF0950182680220904737
:10084000094800680121426F0220904700201149A9
:100850000877054800680121826F59E0C6E065E12C
:1008600044E1EEE04EE1000054C0002098C00020BA
:1008700058C00020C0F9FFFFD7AACDB2B6A8CEBBA2
:10088000B5B2C6ACD5D2B4ABB8D0C6F7B3F6B4EDFA
:1008900021000000A4C0002060C0002064C000202F
:1008A000C9FDBDB5B6A8CEBBB5B2C6ACB4E6D4DA08
:1008B000CEF3BCEC00000000D5D2B7A2B1BEB4AB01
:1008C000B8D0C6F7B3F6B4ED00000000D5D2B7A299
:1008D000BFA8B4ABB8D0C6F7B3F6B4ED00000000C3
:1008E000D5D2B3F6BFA8B4ABB8D0C6F7B3F6B4ED63
:1008F00000000000B7A2BFA8D4ADB5E3C3BBD3D0FE
:10090000B8D0D3A6000000005CC000202829FFFF5B
:100910000A209047F94800680121826F1020904713
:1009200004E1F648006807221E21D0F88C3002202E
:100930009847F24800680721426F02209047F5E08F
:10094000EE480068816D2C2088470120EC4908772B
:10095000002081F89E00E94800680169022088476C
:10096000E6480068D0F8C810022088474FF47A7132
:1009700090FBF1F0E34908600020E3490870DF488C
:1009800000684DF2D861026802209047DB48006899
:10099000032240F6B831D0F88C3002209847C5E0E9
:1009A000D64800680421C26F15209047D3480068DC
:1009B000FE21426F02209047B8E0D0480068C1682D
:1009C00002208847CE494C31CF4A92F9002041F8A5
:1009D0002200CD480078401C40B2CB490870C7487F
:1009E00000680521826F152090479FE0C34800688A
:1009F000C16802208847C2492031C34A92F90020C9
:100A000041F82200C04890F90000062812DBBB48DC
:100A100000680821826F0E209047B8480068FE21C8
:100A2000826F11209047B5480068FE21426F022076
:100A3000904705E0B14800680421C26F1520904737
:100A400074E0AE480068816C2C208847FF2806D0EF
:100A5000AA480068D0F89010ACA0884737E0002082
:100A6000A749C1F89400012021E0A5494C3151F873
:100A700020202C3951F82010521AA149783141F820
:100A80002020583951F820109E4A12688A1A9C4931
:100A9000203141F820202C3151F82010994A126859
:100AA0008A1A97494C3141F82020411C48B2072846
:100AB000DBDB9348C06F924988670846C06C896F3A
:100AC000401A8F4908628D490968086D80472DE0FA
:100AD0008A480068C1690220884788480068022166
:100AE000D0F888204FF4C87090471FE08348006812
:100AF000416802208847814800680621426F022031
:100B0000904713E000207E4908777C480068D0F8C1
:100B1000901083A0884709E000207949087777483A
:100B20000068D0F8901081A0884700BF00BF38BD92
:100B30002DE9F05F81460C46601E44B2B9F1000F0A
:100B400012D1092094FBF0F045B2092094FBF0F19A
:100B500000FB11466A48203050F825004FF42F71F1
:100B600001FB0600BDE8F09FB9F1010F1ED1204640
:100B7000E11704EB5171C9104DB2E11704EB51714B
:100B8000C910A4EBC1065E49203151F825104FF47D
:100B90002F7202FB061002F0CCF8824600226C4B4A
:100BA00001F0F0FF074602F095F8DBE72046E11779
:100BB00004EB5171C9104DB2E11704EB5171C9102A
:100BC000A4EBC1064E49203151F825104FF42F7285
:100BD00002FB061002F0ADF8074600225D4B01F063
:100BE000D1FF824602F076F8BCE70146002012E011
:100BF000434A203252F820205318414A203242F80A
:100C000020302C3252F8202053183D4A4C3242F802
:100C10002030421C50B20728EADB70472DE9F04132
:100C200036490968D1F8A000804730B1012815D0B5
:100C3000022820D0FF2810D142E00020304981F85E
:100C40009C002E4800680121C26F152090472B4858
:100C50000068FF21426F02209047E0E027480068CB
:100C60000221826F1520904724480068FF21426FBF
:100C700002209047D3E0224890F89C00401C40B2EC
:100C80001F4981F89C001D480068D0F8C810022058
:100C900088471B49086019480068C16802208847D6
:100CA0001749C1F89800154800680121C26F152046
:100CB000904712480068FF21426F02209047AEE043
:100CC0000F4890F89C0020B90C490968086D8047CE
:100CD000A5E00A480068016A02208847012855D12A
:100CE000002450E00649203151F82410044AD2F87B
:100CF0009820881A00282FDB01462EE054C00020DF
:100D0000A4C000206CC0002068C00020C9FDBDB593
:100D1000BCC7C2BCB4ABB8D0C6F7B3F6B4ED0000E4
:100D2000CBC5B7FEB3F6B4ED21000000C9FDBDB5DB
:100D3000B8B4CEBBB3F6B4EDA3ACC7EBBCECB2E930
:100D4000B5E7BBFA20B4ABB8D0C6F721000000006D
:100D500000206C4000405F404142B1F5967F11DABF
:100D6000F54800684FF47A7190FBF1F0F249D1F840
:100D70009810091AF048203050F824000D1A28461F
:100D8000FFF733FF641C072CACDB43E000243EE09C
:100D9000E9494C3151F82410E74AD2F89820881AD2
:100DA000002801DB014600E04142B1F5967F2DDAD3
:100DB000E149D1F8980001F0BCFF07460022DF4B63
:100DC00001F0E0FE054601F085FFDB49C1F898001F
:100DD0000846006840004FF47A7190FBF1F0D64964
:100DE000D1F898100844D449C1F898000846D0F8C2
:100DF00098104C3040F82410CF49D1F89820014683
:100E000051F82410501AFFF7F0FE02E0641C072C82
:100E1000BEDB00BFCA490968086D804700BF00BF3C
:100E2000BDE8F08110B5C6490968D1F8A000804737
:100E300004287DD007DC68B101287AD0022879D057
:100E400003281CD1BBE0052875D0062874D0FE28E5
:100E5000F7D104E1FFF79CFCB9480068C16C05209C
:100E60008847E8B1B6480068016F002088473F28EE
:100E700006DDB3480068D0F89010B2A08847F7E0CC
:100E80000020B6490870AE480068016F002088470E
:100E900044B221460020FFF74BFEA749486040E0DE
:100EA000A7480068C16C2D208847E8B1A4480068B5
:100EB000016F00208847382806DDA1480068D0F877
:100EC0009010A0A08847D3E00120A44908709C4856
:100ED0000068016F0020884744B221460120FFF7D7
:100EE00027FE954948601CE095480068016F002086
:100EF0008847382806DD92480068D0F8901091A005
:100F00008847B5E00220954908708D480068016F58
:100F10000020884744B221460220FFF709FE864997
:100F200048608548007F01280ED08548006804E0AD
:100F300054E01DE03BE060E087E0FE220121D0F8B4
:100F400080300420984793E07B4890F89E002D283D
:100F500008DD7B480068FE220121D0F880300420A3
:100F6000984785E076480068016C012088477FE05B
:100F700073480068816D212088476F484168704838
:100F800000688268022090476D4800680321826FE4
:100F9000112090476A4800680421826F1920904709
:100FA000674800680221426F0846904760E0644845
:100FB00000680521D0F888206420904758E06048F8
:100FC0000068C1690220884700205B4908775C48B7
:100FD0000068D0F8901062A0884749E0584800683F
:100FE000C1690220884700205349087754480068A7
:100FF000D0F890105EA088473AE051480068016F31
:101000000020884744B22146544890F90000FFF779
:101010008FFD494948600846416849480068826830
:1010200002209047464800680321826F11209047B4
:10103000434800680421826F1920904740480068A7
:101040000621426F0220904712E03D480068C169C6
:10105000022088473A490968086D804708E0002067
:101060003549087736490968D1F89400804700BFB0
:1010700000BF10BD38B532490968D1F8A0008047DB
:10108000052858D005DC44D2DFE800F00C447D91FF
:101090009E00062874D0FC2873D0FD2872D0FE284C
:1010A00037D1D1E0FFF774FB2348007F40B92448D3
:1010B0000068FD220021D0F880300420984728E005
:1010C0001F480068C16C0A20884728B10A202B49B4
:1010D000087019480C30486019480068C16C092034
:1010E000884728B10B20254908701348083048600C
:1010F00013480068C16C0720884728B10E201F499B
:1011000008700D48103048600D480068016C0120DF
:101110008847A3E019484068006800F19601084834
:101120000068826802209047054800680221426FEB
:101130000846904792E059E0A4C000200080464055
:1011400054C00020C9FDBDB5B6A8CEBBB2CECAFD05
:10115000B3ACB3F6B7B6CEA72100000070C0002034
:10116000C9FDBDB5D7B2C9CFCFDECEBB21000000CF
:10117000CBC5B7FEB1A8B4ED2100000074C00020BB
:1011800042E057E04DE0FB4A92F90000FA4A12684B
:10119000116B884728B1F8480068016C0520884722
:1011A00004E0F5480068016C0320884756E0FE2003
:1011B0000090F0480278F04800680423EF49D0F826
:1011C00098400220A04749E0EB480068C16902202E
:1011D0008847E9480068C16802208847E5494968AE
:1011E0000860E5490968086D804737E0FC200090F9
:1011F000E0480278E048006806234FF47A71D0F89E
:101200009C400220A04729E0DB480068C169022019
:101210008847D94800680321D0F888206420904787
:101220001CE00020D6490877D3490968D1F894001A
:10123000804713E00020D2490877CF480068D0F8F3
:101240009010D0A0884709E00020CD490877CA480F
:101250000068D0F89010D1A0884700BF00BF38BD0B
:1012600010B5C5490968D1F8A000804720B1012810
:101270001ED0FD282AD120E0FFF78AFAC048007F5F
:1012800040B9BD480068FD220121D0F8803004201B
:1012900098470CE0BA484169B74800688268022064
:1012A0009047B54800680121426F022090470DE049
:1012B000B1490968086D804708E00020B049087707
:1012C000AD490968D1F89400804700BF00BF10BD48
:1012D00010B5A9490968D1F8A000804720B10128BC
:1012E0001ED0FD282AD120E0FFF752FAA448007F43
:1012F00040B9A1480068FD220121D0F880300420C7
:1013000098470CE09E4881699B48006882680220EB
:101310009047994800680121426F022090470DE0F4
:1013200095490968086D804708E0002094490877CE
:1013300091490968D1F89400804700BF00BF10BDF3
:1013400038B58D490968D1F8A000804730B101282F
:1013500010D0022818D0FE2829D121E002200090C8
:1013600085480068012307229349D0F89840184621
:10137000A0471CE080480068C169012088477E4979
:101380000968086D804712E0FE2000907A480068E6
:10139000012307228849D0F898401846A04706E064
:1013A00075480068D0F8901084A0884700BF00BF3F
:1013B00038BD38B570490968D1F8A000804730B110
:1013C000012811D0022819D0FE282BD123E00220B9
:1013D0000090694800680123082242F6E061D0F8D5
:1013E00098401846A0471DE063480068C169012085
:1013F000884761490968086D804713E0FE20009026
:101400005D4800680123082242F6E061D0F8984068
:101410001846A04706E058480068D0F890106DA024
:10142000884700BF00BF38BD10B553490968D1F8DF
:10143000A0008047022828D003DC38B1012839D128
:101440001AE003282AD0FE2834D12DE04A4800684B
:10145000016B0920884740B147480068FE220121FE
:10146000D0F880300C20984705E043480068416C74
:101470004FF47B7088471DE03F480068FE22022140
:10148000D0F880300D20984714E03B480068FE22D9
:101490000321D0F880300C2098470BE036480068D4
:1014A000416CFB20884705E033490968D1F8940076
:1014B000804700BF00BF10BD38B52F490968D1F87B
:1014C000A000804730B1012810D0022818D0FE2893
:1014D00029D121E002200090274800680123022240
:1014E0003549D0F898400020A0471CE02248006809
:1014F000C1690020884720490968086D804712E0CB
:10150000FE2000901C480068012302222A49D0F8DE
:1015100098400020A04706E017480068D0F89010D7
:1015200032A0884700BF00BF38BD38B512490968EE
:10153000D1F8A000804730B1012811D002285DD039
:10154000FE286FD167E0022000900B48006801235D
:1015500003224FF44851D0F898400020A04761E0A2
:1015600005480068C1690020884703490968086D7B
:10157000804757E074C0002054C000203CF6FFFFB5
:10158000A4C00020C9FDBDB5C0EBBFAACEBBD6C369
:10159000B4ABB8D0C6F7B3F6B4ED2100C9FDBDB504
:1015A000CFF2CFC2D5D2CEBBD6C3B4ABB8D0C6F77C
:1015B000B3F6B4ED2100000020D1FFFFBFA8CFE4B7
:1015C000B8B4CEBBD5D2B4ABB8D0C6F7CAA7B0DCDE
:1015D00021000000BFA8CFE4B7A2BFA8D5D2B4AB0A
:1015E000B8D0C6F7CAA7B0DC21000000B8B4CEBBA3
:1015F000B7A2B1BEB3F6B4ED21000000FE2000900A
:10160000F9480068012303224FF44851D0F898406C
:101610000020A04706E0F4480068D0F89010F3A03E
:10162000884700BF00BF38BD10B5EF490968D1F841
:10163000A0008047032857D005DC58B101282CD0E2
:10164000022870D13BE004285AD005285ED0FE283D
:1016500069D161E0E4480068016B0620884730B139
:10166000E1480068D0F89010E6A088475BE0DE48CB
:101670000068016B0420884740B1DB480068FE2207
:101680000121D0F880300F20984705E0D648006847
:10169000416C40F2ED30884745E0D3480068FE22B7
:1016A0000221D0F8803010209847CF4800680321ED
:1016B000826F052090470020D649087033E0D54856
:1016C000007840B1C8480068FE220421D0F880307C
:1016D0000F20984707E0C4480068FE220521D0F893
:1016E00080300F2098471EE00120CA490870BE488C
:1016F0000068FE220221D0F884301020984712E0C2
:10170000B9480068416CFA2088470CE0B648006888
:10171000416CFB20884706E0B3480068D0F8901081
:10172000BDA0884700BF00BF10BD38B5AE490968ED
:10173000D1F8A0008047022831D003DC38B101285D
:101740004DD11DE0FD2834D0FE2848D13BE0A6480D
:101750000068016B1420884730B1A3480068D0F8B6
:101760009010B1A088470AE0FE2000909E480068D3
:1017700001231422AF49D0F898400420A0472EE05E
:1017800099480068FE21D0F888204FF47A6090478D
:10179000954800680221C26F142090471FE09249CB
:1017A0000968086D804790480068416904208847AF
:1017B00015E08D480068C169042088478A49096896
:1017C000086D80470BE088480068C169042088479D
:1017D00085480068D0F8901097A0884700BF00BFE8
:1017E00038BD38B580490968D1F8A0008047FC2889
:1017F0003DD005DC48B1012820D0022859D12CE089
:10180000FD2840D0FE2854D147E077480068016B9E
:101810001420884730B174480068D0F8901082A036
:1018200088470AE0FE2000906F48006801231422D8
:101830008049D0F898400320A0473AE06A48006801
:10184000FC21D0F888204FF47A6090476648006801
:101850000221C26F142090472BE063480068C169E1
:101860000320884760490968086D804721E05E4889
:101870000068C169032088475B480068D0F8901071
:1018800070A0884715E058480068C1690320884760
:1018900055490968086D80470BE053480068C169E5
:1018A0000320884750480068D0F890106AA0884705
:1018B00000BF00BF38BD10B54B490968D1F8A00082
:1018C000804710B1012826D10EE0474800686549DD
:1018D000026804209047444800680121D0F888201D
:1018E0004FF47A70904716E03F480068C1690420C1
:1018F00088473D480068016B1420884730B13A485A
:101900000068D0F8901058A0884703E0364909686D
:10191000086D804700BF00BF10BD10B5324909688F
:10192000D1F8A000804710B1012826D10EE02E4842
:1019300000684C490268032090472B480068012149
:10194000D0F888204FF47A70904716E02648006857
:10195000C1690320884724480068016B1420884728
:1019600030B121480068D0F890102FA0884703E0DC
:101970001D490968086D804700BF00BF10BD10B544
:1019800019490968D1F8A000804710B1FF2819D182
:101990000EE015480068334902680320904712485A
:1019A0000068FF21D0F8882041F27070904709E06C
:1019B0000D480068C169032088470B490968086D14
:1019C000804700BF00BF10BD38B507490968D1F88E
:1019D000A0008047032878D052DC20B1012876D0BF
:1019E000022871D17CE050E054C00020B1BECFE4A9
:1019F000B7A2B1BED5D2B4ABB8D0C6F7CAA7B0DCD7
:101A000021000000D1B9BFE9C3BBD3D0D1B9CFC247
:101A1000210000007CC00020B7A2B1BEB8B4CEBB8C
:101A2000CAA7B0DC21000000B3F6BFDAD3D0D6A439
:101A3000BCFE21008044FFFFBDD3BFA8B3ACCAB138
:101A400021000000B3F6B1BEC0EBBFAAB4ABB8D062
:101A5000C6F7B3F6B4ED2100BDD3B1BEB3ACCAB185
:101A600021210000D08AFFFFCDC2BFA8B3F6B4ED9C
:101A7000A3BAB3F6BFDAD3D0D6A4BCFE21000000CF
:101A8000042846D0FE2861D154E0F8480068016B74
:101A90001420884760B1FE200090F44800680123BC
:101AA00014224BF68031D0F89C400420A0470BE074
:101AB00004200090ED480068032314224BF6803187
:101AC000D0F898400420A04740E013E0FFE7E74843
:101AD00000680221D0F888204FF47A70904735E0F2
:101AE000E2480068416904208847E0490968086DB8
:101AF00080472BE0DD4800680121C26F1420904729
:101B0000DA480068FE21D0F8882041F288309047FA
:101B10001CE0D6480068C16904208847D3480068A3
:101B2000D0F89010D2A08847D0480068816D1A2064
:101B300088470BE0CD480068C16904208847CB483E
:101B40000068D0F89010D1A0884700BF00BF38BD12
:101B500038B5C6490968D1F8A000804703283ED0AF
:101B600005DC48B1012827D0022864D12DE00428E3
:101B700044D0FE285FD152E0BC480068016B1420BD
:101B8000884760B1FE200090B84800680123142205
:101B90004EF29021D0F89C400320A0470BE0042097
:101BA0000090B2480068032314224EF29021D0F82E
:101BB00098401846A0473EE0AC4800680221D0F8A3
:101BC00088204FF47A70904735E0A8480068416952
:101BD00003208847A5490968086D80472BE0A34882
:101BE00000680121C26F14209047A0480068FE21C0
:101BF000D0F8882041F2883090471CE09B4800686C
:101C0000C1690320884799480068D0F89010A5A0C2
:101C1000884796480068816D1A2088470BE09348F2
:101C20000068C1690320884790480068D0F8901088
:101C3000A3A0884700BF00BF38BD38B58B490968ED
:101C4000D1F8A000804720B1FE281CD0FF282BD15E
:101C500020E086480068016B1420884730B1834833
:101C60000068D0F890109CA088471DE0FE200090EE
:101C70007E480068FF2312224FF49651D0F8984016
:101C80000520A04710E079480068D0F8901095A092
:101C9000884709E075480068C1690520884773498D
:101CA0000968086D804700BF00BF38BD38B56F496F
:101CB0000968D1F8A000804730B101281BD0FE2868
:101CC00025D0FF2834D129E068480068016B142032
:101CD000884720B165490968086D804728E00120E0
:101CE000009062480068FF2313228349D0F898408F
:101CF0000520A0471CE0FE2000905C480068FF2300
:101D000013227D49D0F898400520A04710E057489D
:101D10000068D0F8901079A0884709E0534800681F
:101D2000C1690520884751490968086D804700BF8F
:101D300000BF38BD38B54D490968D1F8A0008047CB
:101D4000022845D003DC38B101285FD134E0FE28F9
:101D50004BD0FF285AD14FE044480068016B142053
:101D6000884720B141490968086D80474EE03F48E7
:101D70000068016B1220884758B1012000903B4851
:101D80000068FF231C225C49D0F898400520A0473A
:101D900011E00120009035480068FF231C2241F229
:101DA000A861D0F898400520A0473048006802217B
:101DB000826F1220904729E0FE2000902B48006897
:101DC000FF231C224C49D0F898400520A0471DE075
:101DD00026480068C169052088472448006800211A
:101DE000D0F888206420904710E020480068D0F8A0
:101DF000901049A0884709E01C480068C169052087
:101E000088471A490968086D804700BF00BF38BD80
:101E100038B516490968D1F8A0008047022823D0B8
:101E200003DC38B1012811D111E0FE281DD0FF28B4
:101E30000CD193E0022000900C4800680123162288
:101E40004FF4AF51D0F898400720A0478BE00748E7
:101E5000006841690720884704480068FF21D0F8DE
:101E60008820C82090477EE064E070E054C00020E5
:101E7000C3BBD3D0D6A4BCFEA3ACB5A5B1BEB4E65B
:101E8000D6A4BFDAB9D8B1D521210000BFA8BBD8EC
:101E9000CAD5C0EBBFAAB4ABB8D0C6F7B3F6B4EDA1
:101EA00021000000C3BBD3D0D6A4BCFEA3ACB5A513
:101EB000B1BEB4E6D6A4BFDAB9D8B1D521000000CE
:101EC000B1BEBBD8CAD5C0EBBFAAB4ABB8D0C6F7B9
:101ED000B3F6B4ED21000000B3F6BFDAD3D0D6A438
:101EE00021000000D5D2B9D8C3C5B4ABB8D0C6F76D
:101EF000B3F6B4ED2100000040EDFFFFD5D2B4F2FF
:101F0000BFAAB1BEB5B2B0E5C3C5B4ABB8D0C6F7D1
:101F1000B3F6B4ED21000000D5D2B4F2BFAABFA839
:101F2000B5B2B0E5C3C5B4ABB8D0C6F7B3F6B4ED3F
:101F300021000000FE200090FB48006801231622CB
:101F40004FF47071D0F898400720A0470BE0F64896
:101F50000068D0F89010F5A0884704E0F2490968BD
:101F6000086D804700BF00BF38BD38B5EE4909682D
:101F7000D1F8A000804703284AD005DC48B10128E9
:101F80000FD0022867D131E0FE2853D0FF2862D15C
:101F900057E0E54800680121D0F888206420904788
:101FA00059E0E1480068016B1820884760B1FE20C5
:101FB0000090DD480068FF23172240F67531D0F805
:101FC00098400720A04710E0FE200090D648006807
:101FD000FF231722DA49D0F898400720A047D248BB
:101FE00000680221826F1820904734E0CE480068D4
:101FF000C16907208847FE200090CB480068FF2376
:10200000172240F67531D0F898400720A04722E00B
:10201000FE200090C4480068FF231722C949D0F869
:1020200098400720A047C04800680221826F18200E
:10203000904710E0BC480068D0F89010C2A08847D4
:1020400009E0B9480068C16907208847B6490968AE
:10205000086D804700BF00BF38BD38B5B249096878
:10206000D1F8A0008047022822D003DC38B1012833
:1020700036D110E0FE2827D0FF2831D12BE00220F6
:102080000090A948006801231822B549D0F898406B
:102090000720A04724E0A44800684169072088473A
:1020A000A1480068FF21D0F88820C820904717E099
:1020B000FE2000909C48006801231822A149D0F816
:1020C00098400720A0470BE097480068D0F8901090
:1020D000A4A0884704E094490968086D804700BFC0
:1020E00000BF38BD10B590490968D1F8A0008047FD
:1020F00020B101280BD0022823D115E08A480068BE
:102100000121D0F8882040F6B830904719E0864881
:1021100000680121C26B084690478348006802218D
:10212000826F192090470CE07F4800680021C26B45
:10213000012090477C4800680121C26F1920904718
:1021400000BF00BF10BD10B577490968D1F8A000E5
:102150008047022830D003DC38B1012845D11EE089
:10216000032836D0FE2840D138E06F480068016B64
:102170001520884730B16C4800680221C26F1520D5
:10218000904705E0684800680121826F152090475C
:10219000654800680321426F0220904725E06248AD
:1021A00000680221C26F152090475F480068032134
:1021B000426F0220904718E05B4800680121826F5F
:1021C00015209047584800680321426F022090472D
:1021D0000BE055490968086D804706E052480068E1
:1021E000D0F8901065A0884700BF00BF10BD10B5A3
:1021F0004D490968D1F8A0008047042842D007DC87
:1022000078B101281BD0022827D003287DD12CE0EB
:1022100005283ED0062861D0072867D0FE2874D153
:102220006CE04148006841F27071026802209047FA
:102230003D4800680121C26F1520904765E03A488B
:102240000068C16802208847514908603648006824
:102250000221426F0846904757E033480068032147
:10226000D0F88820642090474FE02F480068494903
:102270000268022090472C4800680421C26F152094
:10228000904742E0284800680521826F152090475A
:102290003BE025480068C168022088473C4909683E
:1022A000884205DA20480068016C0620884704E06F
:1022B0001D480068016C072088471B480068C168FA
:1022C00002208847324909680C1A002C01DB20469D
:1022D00000E0604240B23049087016E012480068E1
:1022E000416C2D4890F9000088470EE00E480068C8
:1022F000416C294890F90000884706E00A480068C8
:10230000D0F890101DA0884700BF00BF10BD10B5C9
:1023100005490968D1F8A000804720B101286CD098
:10232000022869D18AE039E054C00020B8B4CEBB9D
:10233000D0FDD7AAD0A1B3B5B3F6B4ED210000000B
:102340008BF4FFFFE0FCFFFFD0FDD7AAD0A1B3B50F
:10235000B6A8CEBBBCECB2E2CEBBB3F6B4ED210066
:102360002BEBFFFFD0FDD7AAD0A1B3B5B6A8CEBB4B
:10237000B3F6BFDAB3F6B4ED21000000B3DDCCF55F
:10238000C6ABB2EEBCECB2E2B9FDB4F32100000082
:1023900080C0002090E8FFFF84C000200020FE499C
:1023A0000870FE480068C16C2320884710B10220E5
:1023B000FB490870F9480068C16C2420884710B1B7
:1023C0000320F7490870F5480068C16C252088474C
:1023D00010B10420F2490870F04800680121C26B76
:1023E000EF4890F900009047EC4800680121D0F8D0
:1023F00088204FF44870904731E0E8480068002199
:10240000C26BE74890F900009047E34890F900005C
:102410000F2808DAE14800680221D0F888204FF43C
:102420004870904703E0DD490968086D8047DA4845
:102430000078401C40B2D849087010E0D7480068C6
:102440000121C26BD64890F900009047D34800683C
:102450000121D0F888204FF44870904700BF00BF9A
:1024600010BD38B5CD490968D1F8A00080470728CC
:1024700063D2DFE800F0041E2632434C5800C74800
:102480000068016B1420884738B1C4480068D0F850
:102490009010AFF2BC5088470AE003200090BF487C
:1024A000006801231422BF49D0F898400420A047B7
:1024B00043E0BA4800680221D0F88820FA2090470B
:1024C0003BE0B6480068416904208847B34800688B
:1024D000D0F89010B4A088472FE0B0480068416958
:1024E0000420884706200090AC480068042314228A
:1024F000AC49D0F898400320A0471EE0A7480068E8
:102500000521D0F888204FF49670904715E0A34835
:102510000068416903208847A0480068D0F89010FF
:10252000A1A0884709E09D490968086D80479B483C
:10253000006841690320884700BF00BF38BD10B55F
:1025400096490968D1F8A000804720B1012811D030
:10255000022823D11DE0914800680121C26B0520AB
:1025600090478E4800680121D0F8882041F28830D9
:10257000904713E0894800680021C26B052090470E
:10258000864800680221D0F888204FF47A6090478E
:1025900004E082490968086D804700BF00BF10BD94
:1025A00070B504467D480460006882A28449C36D0A
:1025B000012098477948006882A28549C36D0220AE
:1025C00098477648006883A300221146456E032091
:1025D000A8477248006882A28449C36D03209847C7
:1025E0006E48006882A28549C36D042098476B48F5
:1025F000006878A300221146456E0520A847674869
:1026000000687FA28149C36D052098476348006830
:1026100070A300221146456E0620A8475F48006857
:102620007BA27A49C36D062098475C4800687BA26C
:102630007F49C36D07209847584800687DA28249AA
:10264000C36D082098475548006880A27849C36D3B
:10265000092098475148006881A27549C36D0A2036
:1026600098474E48006883A28749C36D0B2098475E
:102670004A48006885A28849C36D0C20984747489E
:10268000006886A28949C36D0D20984743480068B9
:1026900087A28949C36D0E2098474048006887A2E9
:1026A0008949C36D0F2098473C48006887A28B4931
:1026B000C36D102098473948006881A28849C36DCE
:1026C000112098473548006886A2AFF6A171C36D06
:1026D000122098473148006886A2AFF6F961C36DB1
:1026E000132098472D48006886A2AFF63561C36D68
:1026F000142098472948006884A2AFF6E151C36DC1
:10270000152098472548006882A2AFF68D51C36D09
:10271000162098472148006881A2AFF65351C36D37
:10272000172098471D48006881A2AFF6DB31C36DC2
:10273000182098471948006881A2AFF60721C36D99
:10274000192098471548006880A2AFF69F21C36DF5
:1027500029209847114800687FA2AFF62131C36D48
:102760001A2098470D4800687EA2AFF65B11C36D32
:102770001B209847094800687EA2AFF61101C36D7F
:102780001C209847054800687FA2AFF23171C36DE5
:102790001D2098470148FFE086C0002054C000205B
:1027A00085C0002068C5FFFFB3F6BFDAD3D0D6A43A
:1027B000BCFE0000C9E8B1B8B8B4CEBB0000000050
:1027C00081000208D7AACDB2B8B4CEBB0000000089
:1027D00073010208B6A8CEBBD7F8B1EA000000002A
:1027E000D7AACDB2B6A8CEBB00000000E502020811
:1027F000C9FDBDB5B8B4CEBB00000000CB070208D0
:10280000C9FDBDB5BFA8B6A8CEBB0000250E020805
:10281000C9FDBDB5B1BEB6A8CEBB0000C9FDBDB5F2
:10282000B6A8CEBBB5BDB3F6BFA8BFDA00000000A6
:1028300075100208C9FDBDB5B6A8CEBBB5BDB3F6CF
:10284000B1BEBFDA0000000061120208C9FDBDB5CB
:10285000B6A8CEBBB7A2BFA8CEBBD6C300000000AF
:10286000C9FDBDB5B6A8CEBBB7A2B1BECEBBD6C35F
:1028700000000000C9FDBDB5B6A8C5FAC1BFCFE4D0
:10288000CEBBD6C300000000D1120208BFA8CFE41F
:10289000B8B4CEBB0000000041130208BFA8CFE4CB
:1028A000BFA8B9B3B5BDCFDECEBB0000B3130208DD
:1028B000B7A2BFA80000000029140208B8B4CEBB1C
:1028C000B7A2B1BE00000000B9140208B1BECFE447
:1028D000B9B3D7D3B5BDCFDECEBB00002B150208F0
:1028E00029160208D7BCB1B8B4D3D0A1B3B5BDD3B3
:1028F000BFA80000D7BCB1B8B4D3D0A1B3B5BDD385
:10290000B1BE0000CDC2BFA800000000CDC2B1BE64
:1029100000000000C5FAC1BFCFE4B3F6D6A40000A2
:10292000BBD8CAD5BFA8B5BDD0A1B3B500000000C3
:10293000BBD8CAD5B1BEB5BDD0A1B3B500000000AB
:10294000B4F2BFAABFA8B5B2B0E50000B4F2BFAA06
:10295000B1BEB5B2B0E50000B9D8B1D5B5B2B0E5F9
:1029600000000000D0A1B3B5D0FDD7AAB8B4CEBB4B
:1029700000000000D0A1B3B5D0FDD7AAB5BDBCEC16
:10298000B2E2CEBB00000000D0A1B3B5D0FDD7AA03
:10299000B5BDB3F6BFDA0000006843A24649C36D77
:1029A000212098474548006845A2AFF6C701C36D8E
:1029B000222098474148006845A2AFF2AD61C36D3F
:1029C000232098473D48006845A2AFF2BD61C36D22
:1029D000242098473948006845A2AFF2CD61C36D05
:1029E000252098473548006845A2AFF28951C36D4C
:1029F000262098473148006844A2AFF6B501C36D60
:102A0000282098472D48006844A24849C36D2C20CF
:102A100098472A480068AFF2442300221146456EC9
:102A20002D20A8472548006841A24649C36D2D20A6
:102A300098472248006844A2AFF2FD41C36D2E20A2
:102A400098471E48006843A2AFF65D01C36D202081
:102A500098471A480068816D222088471748006807
:102A6000D0F8B0103FA0884714480068D0F8AC10E8
:102A700040A08847114800684169072088470F48EF
:102A800000680021826B042090470C4800680021F8
:102A9000826B0920904700203849087738498872AE
:102AA000FDF7B6FA70BD0000BCECB2E2B3DDCCF5C8
:102AB000C6ABB2EE000000001D0C020854C000209E
:102AC000CBC5B7FEB4EDCEF3BCECB2E20000000023
:102AD000B3F6BFA8BFDAB5C6C9C1CBB800000000C5
:102AE000B3F6B1BEBFDAB5C6C9C1CBB800000000AD
:102AF000C5FAC1BFBFDAB5C6C9C1CBB80000000076
:102B0000B3F6BFDAB2DBB8B4CEBB0000CBC5B7FEBC
:102B1000C6ABB2EEBCECB2E200000000BCC7C2BC67
:102B2000B4ABB8D0C6F7CEBBD6C30000D7050208F9
:102B3000C9FDBDB5B6A8CEBBB4E6B1BECEBBD6C34B
:102B400000000000250E0208D6D8C6F4B6C1D0B4E5
:102B5000C6F70000B9E2B0DFBFEDB6C8BCECB2E228
:102B60000000000056312E32303230313030392EF4
:102B7000310000004247473130303000A4C000200F
:102B800098C0002010B591EA030F48BF83F00043BE
:102B900000F14281841A71EB030C05D2121943EB48
:102BA0000C03001B61EB0C01DFF824E14FEA115428
:102BB000A4EB135C1EEA430F18BF9EEA445F73D078
:102BC00023EA0E03DCF1200E21EA045143F48013C2
:102BD00032D322FA0CFE10EB0E0023FA0CFE41EB6E
:102BE0000E01CCF1200E03FA0EFE10EB0E0051F197
:102BF0000001B1F5801FCCF1200E32D201EB04515F
:102C000012FA0EF2BDE8104058BF7047401C38BFA2
:102C10005FEA420218BF7047002814BF20F001008D
:102C200041F100014FEA410313F5001F38BF70471F
:102C3000A1F1C04100F0E2B8012A43EB0302ACF17C
:102C4000200CDCF11F0E32BF4FF0000E23FA0CF304
:102C500010EB030041EB0451B4EB115FD0D0A1EBBA
:102C6000045101F5801149085FEA300001EB04517D
:102C70000ED350F1000038BF12FA0EFE08D1BDE8A5
:102C80001040C9E7401C38BF5FEA4202CAD1C3E71F
:102C9000BDE810404FEA410313F5001F38BF7047ED
:102CA000A1F1C04100F0AAB89EEA445F08D011EA41
:102CB0005E0FBDE8104004BF01F0004100207047E6
:102CC000BDE8104070B500F04BF800BF64FBBE3E9D
:102CD0000000E0FF4FEA41034FEA5353A3F580633E
:102CE000D3F11E03C8BFD3F1210C0CDD4FF000421D
:102CF00042EAC12242EA505232FA03FC8CEAE17CF9
:102D0000ACEBE1707047102BC4BF0020704703F597
:102D1000787CBCF1FF3F04D06FF0004282EA2100D2
:102D2000704770B500F01CF849922480002070476D
:102D3000F2E710F0004248BF4042B0FA80F310FAC8
:102D400003F10AD0C3F11D0303F580634FEA41503C
:102D500002EB035202EBD12170474FF000007047A5
:102D60000EF1020E2EF0030E5EF8046B364205D40F
:102D7000012A43EB030515F5001F12D8012841EB8A
:102D8000010C1CF5001F0CD80ED14FEAD17C15F5B3
:102D9000001F0CEB4C0C0CF1020C08BF4CEBD37C6D
:102DA00004E04FF0080C01E04FEAD37C0CEB4C053B
:102DB00026FA05F606F00706B6F1040C06D20EEB6D
:102DC000860CBDE870404CF0010C6047DFE80CF069
:102DD000090B02024FF000414FF00000A1F5002165
:102DE00070BD19461046012851EB010418BFD4F5F7
:102DF000001484BF002001F0004170BD0808A0F558
:102E000000114FEA3101704710B591EA030F48BF36
:102E100083F000433FF5BEAE841A71EB030C07D27A
:102E200012198CF0004C43EB0C03001B61EB0C01FE
:102E3000DFF8A4E14FEA1154A4EB135C1EEA430F40
:102E400018BF9EEA445F00F0B08023EA6E0352424E
:102E500021EA0451C3EB6E0338BF5B1EDCF1200E88
:102E600025D322FA0CFE10EB0E0043FA0CFE41EBC8
:102E70000E01CCF1200E03FA0EFE10EB0E0051F104
:102E80000001CCF1200E29D412FA0EF201EB04510C
:102E9000BDE8104058BF7047401C1CBFB2F1004F46
:102EA000704700280CBF491C20F00100704712EB4E
:102EB000020E43EB030218BF4FF0010E4EEA42022E
:102EC000ACF1200CDCF11E0E54D943FA0CFE10EBD1
:102ED0000E0051F1FF31CCF11E0ED5D50EF1010ED1
:102EE00012FA0EFE404141EB010101EB445C5FEA46
:102EF0005C5C10D910EBDE7001EB045138BFBEF101
:102F0000004FBDE8104018BF704700280CBF491C97
:102F100020F00100704730D24FEAD42C11F5001197
:102F200024F400641BD0B1FA81F20B3AA41AA41E57
:102F3000D2F12003914030FA03F31943904001EBA2
:102F4000CC71002C01EB0451BDE81040A8BF7047C4
:102F500001F1C0414FF0000001F000417047B0FAAC
:102F600080F310FA03F100D110BDE41A173C4805B4
:102F7000C90AE4E701EB045110BD491001EB04510B
:102F8000BDE810404FEA300002E04FF0000170470A
:102F90004A0008BF0042F8D0B2F5001F28BF7047B2
:102FA00001F000414FF0000070479EEA445F07D0F7
:102FB00011EA5E0FBDE8104004BF002100207047F9
:102FC000BDE8104070B5FFF7CBFE00BF40DFF63E16
:102FD00083F00041104670470000E0FF00D7AAC50B
:102FE000CCD4ADB5E30000000000000000000000FC
:102FF00000000000000000000000000000000000D1
:10300000000000000000534D313031C9FDBDB50056
:1030100000000000000000000000000000000000B0
:1030200000000000000000000000000000000000A0
:103030000000000006000000DC05000000000000A9
:103040000000000000000000000000000000000080
:103050000000000000000000000000000000000070
:04306000000000006C
:0400000500000000F7
:00000001FF
